{
  "_format": "hh-sol-artifact-1",
  "contractName": "CreditStore",
  "sourceName": "contracts/Lock.sol",
  "abi": [
    {
      "inputs": [
        {
          "internalType": "uint256",
          "name": "_initialCreditPriceInWei",
          "type": "uint256"
        },
        {
          "internalType": "address",
          "name": "_initialOwner",
          "type": "address"
        }
      ],
      "stateMutability": "nonpayable",
      "type": "constructor"
    },
    {
      "inputs": [
        {
          "internalType": "address",
          "name": "owner",
          "type": "address"
        }
      ],
      "name": "OwnableInvalidOwner",
      "type": "error"
    },
    {
      "inputs": [
        {
          "internalType": "address",
          "name": "account",
          "type": "address"
        }
      ],
      "name": "OwnableUnauthorizedAccount",
      "type": "error"
    },
    {
      "anonymous": false,
      "inputs": [
        {
          "indexed": true,
          "internalType": "address",
          "name": "buyer",
          "type": "address"
        },
        {
          "indexed": false,
          "internalType": "uint256",
          "name": "bnbAmount",
          "type": "uint256"
        },
        {
          "indexed": false,
          "internalType": "uint256",
          "name": "creditAmount",
          "type": "uint256"
        }
      ],
      "name": "CreditsPurchased",
      "type": "event"
    },
    {
      "anonymous": false,
      "inputs": [
        {
          "indexed": true,
          "internalType": "address",
          "name": "previousOwner",
          "type": "address"
        },
        {
          "indexed": true,
          "internalType": "address",
          "name": "newOwner",
          "type": "address"
        }
      ],
      "name": "OwnershipTransferred",
      "type": "event"
    },
    {
      "inputs": [],
      "name": "creditPriceInWei",
      "outputs": [
        {
          "internalType": "uint256",
          "name": "",
          "type": "uint256"
        }
      ],
      "stateMutability": "view",
      "type": "function"
    },
    {
      "inputs": [],
      "name": "owner",
      "outputs": [
        {
          "internalType": "address",
          "name": "",
          "type": "address"
        }
      ],
      "stateMutability": "view",
      "type": "function"
    },
    {
      "inputs": [
        {
          "internalType": "uint256",
          "name": "_numberOfCredits",
          "type": "uint256"
        }
      ],
      "name": "purchaseCredits",
      "outputs": [],
      "stateMutability": "payable",
      "type": "function"
    },
    {
      "inputs": [],
      "name": "renounceOwnership",
      "outputs": [],
      "stateMutability": "nonpayable",
      "type": "function"
    },
    {
      "inputs": [
        {
          "internalType": "uint256",
          "name": "_newCreditPriceInWei",
          "type": "uint256"
        }
      ],
      "name": "setCreditPrice",
      "outputs": [],
      "stateMutability": "nonpayable",
      "type": "function"
    },
    {
      "inputs": [
        {
          "internalType": "address",
          "name": "newOwner",
          "type": "address"
        }
      ],
      "name": "transferOwnership",
      "outputs": [],
      "stateMutability": "nonpayable",
      "type": "function"
    },
    {
      "inputs": [],
      "name": "withdrawBNB",
      "outputs": [],
      "stateMutability": "nonpayable",
      "type": "function"
    },
    {
      "stateMutability": "payable",
      "type": "receive"
    }
  ],
  "bytecode": "0x608060405234801561001057600080fd5b50604051610dde380380610dde83398181016040528101906100329190610263565b80600073ffffffffffffffffffffffffffffffffffffffff168173ffffffffffffffffffffffffffffffffffffffff16036100a55760006040517f1e4fbdf700000000000000000000000000000000000000000000000000000000815260040161009c91906102b2565b60405180910390fd5b6100b48161010660201b60201c565b50600082116100f8576040517f08c379a00000000000000000000000000000000000000000000000000000000081526004016100ef9061032a565b60405180910390fd5b81600181905550505061034a565b60008060009054906101000a900473ffffffffffffffffffffffffffffffffffffffff169050816000806101000a81548173ffffffffffffffffffffffffffffffffffffffff021916908373ffffffffffffffffffffffffffffffffffffffff1602179055508173ffffffffffffffffffffffffffffffffffffffff168173ffffffffffffffffffffffffffffffffffffffff167f8be0079c531659141344cd1fd0a4f28419497f9722a3daafe3b4186f6b6457e060405160405180910390a35050565b600080fd5b6000819050919050565b6101e2816101cf565b81146101ed57600080fd5b50565b6000815190506101ff816101d9565b92915050565b600073ffffffffffffffffffffffffffffffffffffffff82169050919050565b600061023082610205565b9050919050565b61024081610225565b811461024b57600080fd5b50565b60008151905061025d81610237565b92915050565b6000806040838503121561027a576102796101ca565b5b6000610288858286016101f0565b92505060206102998582860161024e565b9150509250929050565b6102ac81610225565b82525050565b60006020820190506102c760008301846102a3565b92915050565b600082825260208201905092915050565b7f437265646974207072696365206d75737420626520706f736974697665000000600082015250565b6000610314601d836102cd565b915061031f826102de565b602082019050919050565b6000602082019050818103600083015261034381610307565b9050919050565b610a85806103596000396000f3fe6080604052600436106100745760003560e01c80638da5cb5b1161004e5780638da5cb5b146100d9578063ad17a0b314610104578063bef101fb1461012d578063f2fde38b146101495761007b565b80631d111d1314610080578063651fbd1714610097578063715018a6146100c25761007b565b3661007b57005b600080fd5b34801561008c57600080fd5b50610095610172565b005b3480156100a357600080fd5b506100ac610279565b6040516100b991906105ee565b60405180910390f35b3480156100ce57600080fd5b506100d761027f565b005b3480156100e557600080fd5b506100ee610293565b6040516100fb919061064a565b60405180910390f35b34801561011057600080fd5b5061012b60048036038101906101269190610696565b6102bc565b005b61014760048036038101906101429190610696565b610311565b005b34801561015557600080fd5b50610170600480360381019061016b91906106ef565b6103fc565b005b61017a610482565b6000479050600081116101c2576040517f08c379a00000000000000000000000000000000000000000000000000000000081526004016101b990610779565b60405180910390fd5b60006101cc610293565b73ffffffffffffffffffffffffffffffffffffffff16826040516101ef906107ca565b60006040518083038185875af1925050503d806000811461022c576040519150601f19603f3d011682016040523d82523d6000602084013e610231565b606091505b5050905080610275576040517f08c379a000000000000000000000000000000000000000000000000000000000815260040161026c9061082b565b60405180910390fd5b5050565b60015481565b610287610482565b6102916000610509565b565b60008060009054906101000a900473ffffffffffffffffffffffffffffffffffffffff16905090565b6102c4610482565b60008111610307576040517f08c379a00000000000000000000000000000000000000000000000000000000081526004016102fe90610897565b60405180910390fd5b8060018190555050565b60008111610354576040517f08c379a000000000000000000000000000000000000000000000000000000000815260040161034b90610929565b60405180910390fd5b6000600154826103649190610978565b90508034146103a8576040517f08c379a000000000000000000000000000000000000000000000000000000000815260040161039f90610a06565b60405180910390fd5b3373ffffffffffffffffffffffffffffffffffffffff167ffb82fc1c5adf84899709e87563b69dd5f4ac33320f1c60dbca744bec717eb90f34846040516103f0929190610a26565b60405180910390a25050565b610404610482565b600073ffffffffffffffffffffffffffffffffffffffff168173ffffffffffffffffffffffffffffffffffffffff16036104765760006040517f1e4fbdf700000000000000000000000000000000000000000000000000000000815260040161046d919061064a565b60405180910390fd5b61047f81610509565b50565b61048a6105cd565b73ffffffffffffffffffffffffffffffffffffffff166104a8610293565b73ffffffffffffffffffffffffffffffffffffffff1614610507576104cb6105cd565b6040517f118cdaa70000000000000000000000000000000000000000000000000000000081526004016104fe919061064a565b60405180910390fd5b565b60008060009054906101000a900473ffffffffffffffffffffffffffffffffffffffff169050816000806101000a81548173ffffffffffffffffffffffffffffffffffffffff021916908373ffffffffffffffffffffffffffffffffffffffff1602179055508173ffffffffffffffffffffffffffffffffffffffff168173ffffffffffffffffffffffffffffffffffffffff167f8be0079c531659141344cd1fd0a4f28419497f9722a3daafe3b4186f6b6457e060405160405180910390a35050565b600033905090565b6000819050919050565b6105e8816105d5565b82525050565b600060208201905061060360008301846105df565b92915050565b600073ffffffffffffffffffffffffffffffffffffffff82169050919050565b600061063482610609565b9050919050565b61064481610629565b82525050565b600060208201905061065f600083018461063b565b92915050565b600080fd5b610673816105d5565b811461067e57600080fd5b50565b6000813590506106908161066a565b92915050565b6000602082840312156106ac576106ab610665565b5b60006106ba84828501610681565b91505092915050565b6106cc81610629565b81146106d757600080fd5b50565b6000813590506106e9816106c3565b92915050565b60006020828403121561070557610704610665565b5b6000610713848285016106da565b91505092915050565b600082825260208201905092915050565b7f4e6f20424e4220746f2077697468647261770000000000000000000000000000600082015250565b600061076360128361071c565b915061076e8261072d565b602082019050919050565b6000602082019050818103600083015261079281610756565b9050919050565b600081905092915050565b50565b60006107b4600083610799565b91506107bf826107a4565b600082019050919050565b60006107d5826107a7565b9150819050919050565b7f424e42207769746864726177616c206661696c65640000000000000000000000600082015250565b600061081560158361071c565b9150610820826107df565b602082019050919050565b6000602082019050818103600083015261084481610808565b9050919050565b7f437265646974207072696365206d75737420626520706f736974697665000000600082015250565b6000610881601d8361071c565b915061088c8261084b565b602082019050919050565b600060208201905081810360008301526108b081610874565b9050919050565b7f4d757374207075726368617365206174206c65617374206f6e6520637265646960008201527f7400000000000000000000000000000000000000000000000000000000000000602082015250565b600061091360218361071c565b915061091e826108b7565b604082019050919050565b6000602082019050818103600083015261094281610906565b9050919050565b7f4e487b7100000000000000000000000000000000000000000000000000000000600052601160045260246000fd5b6000610983826105d5565b915061098e836105d5565b925082820261099c816105d5565b915082820484148315176109b3576109b2610949565b5b5092915050565b7f496e636f727265637420424e4220616d6f756e7420666f722063726564697473600082015250565b60006109f060208361071c565b91506109fb826109ba565b602082019050919050565b60006020820190508181036000830152610a1f816109e3565b9050919050565b6000604082019050610a3b60008301856105df565b610a4860208301846105df565b939250505056fea2646970667358221220d87521f7d6df2d9519d9269db433de0bddccfa6daac93cf1227dbb60d5b05c3d64736f6c634300081c0033",
  "linkReferences": {},
  "deployedLinkReferences": {}
}